:03000000020C509F
:0C0C5000787FE4F6D8FD75815A020C97FD
:1009A600422054696D6572005072657373206E2023
:1009B600746F20736176650043204368616E6765D6
:1009C60070617373776F72640044204368616E6769
:1009D600652054696D65000D0A004F4B005472790D
:1009E60020616761696E21006F6B20616E64207300
:1009F60061766564005361766564004C6F61646975
:100A06006E672E2E2E00506C6561736520696E70C0
:100A160075742070617373776F7264210057656C0B
:100A2600636F6D6520746F20796F7521005468655A
:100A36002070617373776F726420697320657272B8
:100A46006F722120706C656561736520696E7075C3
:090A56007420616761696E2100E2
:100D5D00073B31323334353600034608190001455F
:100D6D000001420001383C015900023900000243E4
:0F0D7D00000002220000012400012500012F00C8
:10081C00D291D2AF12131E1213F712137312138745
:10082C007BFF7A0A790C1211C67BFF7A0A7901E4F4
:10083C00FDFF12119A7BFF7A0A7901E4FDFF121178
:10084C009A7F031212A18F387B007A007946750CBF
:10085C0003E4FD120F611213A9300976120DD1E5D4
:10086C00421460171460361460482403706430021C
:10087C0061120E42C202120BB78057300A547BFF32
:10088C007A0979A6E4FDFF12119A7BFF7A0979AEF9
:10089C007D01E4FF12119AC20AC2918035300A32EE
:1008AC007BFF7A0979BEE4FDFF12119AC20AD201CC
:1008BC008020300A1D7BFF7A0979CFE4FDFF1211ED
:1008CC009A7BFF7A0979AE7D01E4FF12119AC20A74
:0B08DC00D20B120A5F12023102086208
:100DD10030046DC204E54675F00A842430F508E557
:100DE1004675F00A84E5F02430F509E54775F00A07
:100DF100842430F50AE54775F00A84E5F02430F5DE
:100E01000BE54875F00A8475F00A84E5F02430F5A5
:100E11000CE54875F00A84E5F02430F50D750E2FC8
:100E210085190F851A10851B11851C12E4F513FB1A
:100E31007A0079081211C67BFF7A0979DD1211C691
:010E4100228E
:100E4200E5427061750841750920E54675F00A842E
:100E52002430F50AE54675F00A84E5F02430F50BF6
:100E6200750C2DE54775F00A842430F50DE54775BC
:100E7200F00A84E5F02430F50E750F2DE54875F083
:100E82000A8475F00A84E5F02430F510E54875F01F
:100E92000A84E5F02430F511E4F512FB7A007908B2
:050EA200FDFF12119A92
:010EA7002228
:10109C008B0B8A0C890DAB0EAA0FA91012056B6075
:1010AC00240510E5107002050F14F912056BFFAB47
:1010BC000B050DE50DAA0C7002050C14F912056B4D
:0710CC006F60D3C322D322A1
:1011C6008B148A158916AB14AA15A91612056B601D
:1011D60016C2060516E5167002051514F912056BFA
:0811E600F5992006E180FB22CF
:100EA800200927750E00750F0075103B7B007A002E
:100EB800794912109C500AD2097BFF7A0A7923805B
:100EC800067BFF7A0A79331211C6E54964547030FB
:100ED800E54A24D075F00AA4FFE54B24D02FF54647
:100EE800E54C24D075F00AA4FFE54D24D02FF54732
:100EF800E54E24D075F00AA4FFE54F24D02FF5481D
:010F080022C6
:1013A90030050CE5596003120EA8C205E4F559226F
:0C13F700759850758E11759CF7D2AC22D1
:030023000211398E
:10113900C0E0C0D075D000C000C007309814C29874
:10114900AF59055974492FF8A699753900753A00B0
:10115900C205309904C299D206D007D000D0D0D0A8
:02116900E03272
:10131E00538E7F5389F0438901758A33758CF5C2DC
:06132E008DD28CD2A92231
:100678000523E52370020522E5457024E53875F069
:100688000A8475F00A84E5F09013C99390003AF053
:10069800E53875F00A84E5F09013C99390003BF0B3
:1006A800E54564017040D3E52394F4E522940140C4
:1006B8000690003A74FFF0D3E52394F4E522940100
:1006C8005014E53875F00A8475F00A84E5F0901343
:1006D800C99390003AF0E53875F00A84E5F0901374
:1006E800C99390003BF0E54564027045D3E5239437
:1006F800F4E5229401400690003B74FFF0E545B410
:10070800021BD3E52394F4E52294015010E53875D3
:10071800F00A84E5F09013C99390003BF0E5387532
:10072800F00A8475F00A84E5F09013C99390003AB2
:10073800F0C3E52394E8E52294034005E4F522F5A7
:01074800238D
:01074900228D
:03000B000208E701
:1008E700C0E0C0F0C083C082C0D075D000C000C0D7
:1008F70001C002C003C004C005C006C007758A3323
:10090700758CF512043B2091061206781211EE053C
:100917003AE53A700205390544E54470020543C3D8
:10092700E53A94E8E5399403401E753900753A00B5
:100937000548D204D200300806E54570021538E5AF
:10094700387005D20775383CC3E544942CE54394C9
:1009570001400AD202754300754400D205E548C339
:10096700943C40057548000547E547C3943C40055E
:100977007547000546E546C39418400375460030A1
:100987000702B293D007D006D005D004D003D00217
:0F099700D001D000D0D0D082D083D0F0D0E032C9
:100FAE00E4F50CEF2430FF743B2524F8EFF6F50B37
:100FBE007B007A00790B7D01AF2412119A0524E58E
:100FCE0024B40618E4F5247B107D01FF1213347B44
:0C0FDE00FF7A0979E07D01E4FF12119A0E
:010FEA0022E4
:100F0900E4F52DF52EEF2430FF74262525F8EFF6AC
:100F1900F52D7B007A00792D7D01AF2512119A05F7
:100F290025E52564067030F5257B107D01FF121338
:100F390034750E00750F0075103B7B007A00792619
:100F490012109C5003D2092212140D7BFF7A0979E1
:070F5900E3E4FDFF12119A11
:010F6000226E
:020CDC008F0B7C
:100CDE00E52F70087B107D01FF121334E4F531E52A
:100CEE000B2430FF7432252FF8EFF6F5307B007AA7
:100CFE000079307D01AF2F12119A052FE52F640672
:100D0E00704AD203E53224D075F00AA4FFE53324ED
:100D1E00D02FF546E53424D075F00AA4FFE535242E
:100D2E00D02FF547E53624D075F00AA4FFE5372419
:100D3E00D02FF548E4F52F7B107D01FF1213347B85
:0E0D4E00FF7A0979E07D01E4FF02119AC203E9
:010D5C002274
:10116B00E545D394004027E54524FE601404701E2A
:10117B00E53875F00A84AEF0EF75F00AA42EF53859
:0F118B0022E53875F00A8475F00AA42FF5382292
:100026008F0A300949E50A249C602114602424F0D3
:1000360060030200C90542D20AC201C20BD291E591
:1000460042B40403E4F54212140D8077C207D2933A
:100056008071C209E4F542C201C20BD29112140D9D
:100066007BFF7A0A7901E4FDFF12119A8055E50AB1
:10007600B40A00504E900082F82828730200C40289
:1000860000A00200A40200A80200AC0200B0020018
:10009600B40200B80200BC0200C07F0180227F02C9
:1000A600801E7F03801A7F0480167F0580127F06DC
:1000B600800E7F07800A7F0880067F098002E4FFA2
:1000C600120F09300155E50AB40A00504E9000DAC5
:1000D600F828287302011C0200F80200FC02010045
:1000E60002010402010802010C02011002011402BD
:1000F60001187F0180227F02801E7F03801A7F0401
:1001060080167F0580127F06800E7F07800A7F0893
:1001160080067F098002E4FF120FAE300B7BE50AF2
:100126002492602C246EB40A00506E900138F82890
:10013600287302019A02017602017A02017E020107
:100146008202018602018A02018E02019202019652
:100156003003467B007A007946750F03E4FD1210E2
:10016600647BFF7A0979EE7D01E4FF12119A8029FA
:100176007F0180227F02801E7F03801A7F04801603
:100186007F0580127F06800E7F07800A7F08800623
:100196007F098002E4FF120CDC309103020230E595
:1001A6000A1205FD022B00020701020B02020F03D1
:1001B600021304021705021B06021F070223080288
:1001C600270901D56C01E36E01E0720000023005DB
:1001D60045E54564037053F54522B20822E54570AE
:1001E60049200846AD387F0312135E7B107D01E47B
:1001F600FF1213347BFF7A0979FB7D01E4FF0211BC
:100206009A7F0180227F02801E7F03801A7F0480EE
:10021600167F0580127F06800E7F07800A7F088082
:0B022600067F098002E4FF12116B222A
:10023100200E0302043AC20E30094C900038E0242B
:10024100E7602224D46024240560030202DA054217
:10025100D20AC201C20BD291E542B40403E4F542D1
:1002610012140D8074C207D293806EC209E4F54264
:10027100C201C20BD29112140D7BFF7A0A7901E4FB
:10028100FDFF12119A8052900038E01205FD02BD67
:100291000802B10C02D51602B51802C11C02C942EE
:1002A10002D14A02CD5202C55A02B95E000002DAF9
:1002B1007F0180227F02801E7F03801A7F048016C7
:1002C1007F0580127F06800E7F07800A7F088006E7
:1002D1007F098002E4FF120F09300152900038E0DB
:1002E1001205FD03120803060C032A16030A18035C
:1002F100161C031E4203264A032252031A5A030EF6
:100301005E0000032F7F0180227F02801E7F038019
:100311001A7F0480167F0580127F06800E7F07807A
:100321000A7F0880067F098002E4FF120FAE300BBE
:1003310075900038E01205FD038A08037E0C03A2C4
:1003410016038218038E1C039642035E44039E4AE1
:10035100039A5203925A03865E000003A7300346B4
:100361007B007A007946750F03E4FD1210647BFF70
:100371007A0979EE7D01E4FF12119A80297F0180CB
:10038100227F02801E7F03801A7F0480167F0580F2
:10039100127F06800E7F07800A7F0880067F098012
:1003A10002E4FF120CDC30910302043A900038E0C1
:1003B1001205FD03DF07041D0803EA0904110C04FB
:1003C100351604151804211C04294203ED44043197
:1003D1004A042D5204255A04195E0000043A0545C9
:1003E100E54564037053F54522B20822E54570499D
:1003F100200846AD387F0312135E7B107D01E4FFB8
:100401001213347BFF7A0979FB7D01E4FF02119A13
:100411007F0180227F02801E7F03801A7F04801665
:100421007F0580127F06800E7F07800A7F08800685
:0A0431007F098002E4FF12116B2224
:09140300C2A18E8012140CD292D9
:01140C0022BD
:10000E007580FFC2A0D2A1D292AF8012140CC29200
:04001E00EF20E7F3F5
:0100220022BB
:0F13D900AE0712000EC2A0121403C29202140C2F
:0F13E800AE0712000ED2A0121403C29202140C10
:10130700C2AFED7004AC078004EF2440FCEC4480CE
:06131700FF1213D9D2AF52
:01131D0022AD
:10119A008B168A178918C2AF121307AB16AA17A99A
:1011AA001812056B60130518E5187002051714F973
:0C11BA0012056BFF1213E880E2D2AF2296
:10133400C2AF121307AF031BEF60077F201213E83D
:0513440080F3D2AF228E
:0A140D00C2AF7F011213D9D2AF2243
:101373007F381213D97F0C1213D97F061213D97F2A
:04138300010213D977
:1013B900010203750405066C0708096400656E726D
:100D8C0050002001010101010101010101010101DA
:100D9C00010101011F00500000FFFFFFFFFFFFFFDB
:100DAC00FFFFFFFFFFFFFFFFFF50001001010101DC
:0C0DBC000101010101010101010101011F
:10043B00531F03E51F14600F146011146013240382
:10044B00701275A07F800D75A0BF800875A0DF802E
:10045B000375A0EFE51F25E025E02400F582E434C9
:10046B0000F583E025E0FFA2A0E4334FFFE51F2555
:10047B00E025E02400F582E43400F583EFF0E51F7E
:10048B0025E025E02401F582E43400F583E025E046
:10049B00FFA2A1E4334FFFE51F25E025E02401F582
:1004AB0082E43400F583EFF0E51F25E025E024021C
:1004BB00F582E43400F583E025E0FFA2A2E4334F9C
:1004CB00FFE51F25E025E02402F582E43400F583E7
:1004DB00EFF0E51F25E025E02403F582E43400F579
:1004EB0083E025E0FFA2A3E4334FFFE51F25E025C2
:1004FB00E02403F582E43400F583EFF0E4FFE51F1D
:10050B0025E025E02400F582E43400F583E5822F15
:10051B00F582E43583F583E0540FFE701DE51F254E
:10052B00E025E02420F582E43400F583E5822FF505
:10053B0082E43583F583E4F0801FBE0F1CE51F2595
:10054B00E025E02420F582E43400F583E5822FF5E5
:0F055B0082E43583F5837401F00FBF04A1051FFF
:01056A00226E
:100A5F00E4F508E4F509E50825E025E02420F58212
:100A6F00E43400F583E5822509F582E43583F583C7
:100A7F00E0FFE50825E025E02410F582E43400F5D9
:100A8F0083E5822509F582E43583F583E0FE6F6007
:100A9F005BEE7020E50825E025E024B9F582E4340B
:100AAF0013F583E5822509F582E43583F583E49315
:100ABF00FF120026E50825E025E02420F582E43426
:100ACF0000F583E5822509F582E43583F583E0FFA0
:100ADF00E50825E025E02410F582E43400F583E5F0
:100AEF00822509F582E43583F583EFF00509E509E1
:100AFF00C394045003020A650508E508C394045023
:040B0F0003020A6271
:010B130022BF
:10138700D2B253890F438910C28EC2ABD288D2A87A
:011397002233
:10125D00E4F58DF58BD28E30B207E58DD394C24077
:10126D00F6C28EAF8DEFFEAD8B7C00E42DFFEC3E14
:02127D00FE224F
:10127F00E4F58DF58BD28E20B207E58DD394C24065
:10128F00F6C28EAF8DEFFEAD8B7C00E42DFFEC3EF2
:02129F00FE222D
:0300030002074AA7
:10074A00C0E0C083C082C0D075D000C001C002C062
:09075A0003C004C005C006C0077D
:1007630012127FC3EF94CCEE945B4009D3EF9499BC
:10077300EE94664005C28902080512125DC3EF9428
:1007830033EE942B4009D3EF9400EE94364004C229
:1007930089806FE4FBE4FA12127FC3EF94ACEE940A
:1007A300034009D3EF946DEE94084004C28980524C
:1007B30012125DD3EF94ACEE9403400EEF946DEE02
:1007C30094085006E9C313F9801ED3EF94C5EE9441
:1007D3000F4011EF9485EE94145009E9C313F943C4
:1007E30001808004C289801A0ABA08AB74362BF5DB
:1007F30082E43400F583E9F00BEB64047097C2895B
:02080300D20E13
:10080500D007D006D005D004D003D002D001D0D077
:07081500D082D083D0E03255
:0D12EF007F967E001212FCD2B57F017E00BA
:0B12FC00EF1FAC0670011E4C70F622C4
:10123A001212F6C2B57FE67E031212FCD2B57F3BCC
:10124A007E001212FCA2B5920D7F2C7E011212F3BF
:02125A00A20DE3
:01125C00226F
:0212D600AD0762
:1012D800E4FBC2B51212F8ED1392B51212EFEDC38A
:0612E80013FD0BBB08EC36
:0112EE0022DD
:10121500E4FBC2B57F011212F1A2B5E433FA121252
:10122500EFEAC43333335480FFEDC3134FFD0BBBDB
:0412350008E0AF0519
:011239002292
:1012BC00C2AF12123A920C200C0A7FCC1212D67FBB
:0912CC00441212D6D2AFA20CB3F9
:0112D50022F6
:061028008B088A09890A09
:10102E00C2AF12123A920C200C267FCC1212D67F2F
:10103E00BE1212D6121215A907121215EFFE7C005F
:10104E00E429FFEC3EAB08AA09A90A8FF01205DECF
:05105E00D2AFA20CB3AB
:01106300226A
:0A0B14008B088A09890A8C0B8D0CEE
:100B1E00E4F50DF50EC3E50B64809480501CC3E420
:100B2E00950CF50CE4950BF50B050AE50A7002051C
:100B3E000914F9742D120584050EAE0BAF0C7C0052
:100B4E007D0A1205A8AF05AE0D050D740F2EF8A681
:100B5E0007AE0BAF0C7C007D0A1205A88E0B8F0C16
:100B6E00D3E50C9400E50B6480948050CDE50D2503
:100B7E000EF50EAF0D150DD3EF64809480401D74ED
:100B8E000F250DF8E62430FFAB08050AE50AAA0981
:100B9E007002050914F9EF12058480D7AB08AA0973
:080BAE00A90AE4120584AF0E50
:010BB600221C
:100BB700200003020C4F7B017A0079301210284085
:100BC70003020C4C900030E0FCA3E0FDAE04780477
:100BD700CEA2E713CE13D8F8FF900032EEF0A3EFC2
:100BE700F0ED540FFFA3E4F0A3EFF07B007A007958
:100BF70019900032E0FCA3E0FD120B14AB070B7455
:100C0700192FF8762E900034E0FEA3E0FF7C007DDC
:100C17000A1205967D101205A8900034EEF0A3EF96
:100C2700F02430FFAE030B74192EF8A60774192BA6
:100C3700F876630B74192BF8E4F6FB7A0079197DC3
:080C470001FF12119A1212BC08
:010C4F002282
:1013C900C0F9A4B0999282F880908883C6A1868ECC
:080DC80042003AFFFF015A004E
:1011EE007580FFE5A054F8455AF5A0743A255AF5D6
:1011FE0082E43400F583E0F580E55AC39401500390
:06120E00055A22E4F55A26
:0112140022B7
:10139800D2B7D2B600000000C2B700000000C2B643
:0113A8002222
:10134900C2B6C2B700000000D2B600000000D2B792
:0513590000000000226D
:070FEB00C2AF1213987FA2B0
:100FF2007E80EE601B5F7004C2B78002D2B7000031
:101002000000D2B600000000C2B6EEC313FE80E2BA
:10101200D2B700000000D2B6A2B7920C00000000C6
:05102200C2B6A20CB3F0
:0110270022A6
:1010D300D2B77E80EE601D00000000D2B620B705B7
:1010E300F452078003EE420700000000C2B6EEC3CD
:1010F30013FE80E0D2B700000000D2B6000000006B
:02110300C2B672
:0111050022C7
:10110600D2B77E80EE601D00000000D2B620B70583
:10111600F452078003EE420700000000C2B6EEC399
:1011260013FE80E0C2B700000000D2B60000000047
:02113600C2B63F
:011138002294
:0212A100AD0797
:1012A300120FEBAF05120FF21213987FA3120FF276
:0812B3001210D3121349D2AF4F
:0112BB002210
:10135E00AC07120FEBAF04120FF2AF05120FF21221
:05136E001349D2AF227B
:100F61008B088A09890A120FED400512134980F690
:100F7100AF05120FF21213987FA3120FF2E50CD3F3
:100F810094014019121106AB08050AE50AAA097075
:100F910002050914F9EF120584150C80E01210D333
:0D0FA100AB08AA09A90AEF12058402134942
:101064008B0B8A0C890DAF0F150FEF602A120FED51
:10107400400512134980F6AF050D120FF2AB0B05B4
:101084000DE50DAA0C7002050C14F912056BFF1284
:081094000FF212134980CF2274
:100C5C0002081CE493A3F8E493A34003F68001F28A
:100C6C0008DFF48029E493A3F85407240CC8C33399
:100C7C00C4540F4420C8834004F456800146F6DF68
:100C8C00E4800B0102040810204080900D5DE47E8E
:100C9C00019360BCA3FF543F30E509541FFEE4935D
:100CAC00A360010ECF54C025E060A840B8E493A324
:100CBC00FAE493A3F8E493A3C8C582C8CAC583CA4F
:100CCC00F0A3C8C582C8CAC583CADFE9DEE780BE07
:010DD0000022
:10056B00BB010689828A83E0225002E722BBFE028E
:09057B00E32289828A83E49322C1
:10058400BB010689828A83F0225002F722BBFE0156
:02059400F32250
:10059600EF8DF0A4A8F0CF8CF0A428CE8DF0A42E79
:0205A600FE2233
:1005A800C2D5EC30E709B2D5E4C39DFDE49CFCEE6E
:1005B80030E715B2D5E4C39FFFE49EFE120623C3BD
:1005C800E49DFDE49CFC800312062330D507C3E4B8
:0605D8009FFFE49EFE22DD
:1005DE00BB010A89828A83F0E5F0A3F0225006F768
:0F05EE0009A7F01922BBFE06F3E5F009F3192265
:1005FD00D083D082F8E4937012740193700DA3A38D
:10060D0093F8740193F5828883E4737402936860A0
:06061D00EFA3A3A380DFA0
:10062300BC000BBE0029EF8DF084FFADF022E4CCBB
:10063300F875F008EF2FFFEE33FEEC33FCEE9DEC84
:10064300984005FCEE9DFE0FD5F0E9E4CEFD22EDCA
:10065300F8F5F0EE8420D21CFEADF075F008EF2F14
:10066300FFED33FD4007985006D5F0F222C398FD05
:050673000FD5F0EA22A2
:00000001FF
